{
  "contractName": "VeriLock",
  "abi": [
    {
      "inputs": [],
      "stateMutability": "nonpayable",
      "type": "constructor"
    },
    {
      "anonymous": false,
      "inputs": [
        {
          "indexed": false,
          "internalType": "string",
          "name": "docHash",
          "type": "string"
        },
        {
          "indexed": false,
          "internalType": "address",
          "name": "uploader",
          "type": "address"
        }
      ],
      "name": "DocumentUploaded",
      "type": "event"
    },
    {
      "anonymous": false,
      "inputs": [
        {
          "indexed": false,
          "internalType": "string",
          "name": "docHash",
          "type": "string"
        },
        {
          "indexed": false,
          "internalType": "bool",
          "name": "verified",
          "type": "bool"
        }
      ],
      "name": "DocumentVerified",
      "type": "event"
    },
    {
      "inputs": [
        {
          "internalType": "string",
          "name": "docHash",
          "type": "string"
        }
      ],
      "name": "uploadDocument",
      "outputs": [],
      "stateMutability": "nonpayable",
      "type": "function"
    },
    {
      "inputs": [
        {
          "internalType": "string",
          "name": "docHash",
          "type": "string"
        }
      ],
      "name": "verifyDocument",
      "outputs": [],
      "stateMutability": "nonpayable",
      "type": "function"
    },
    {
      "inputs": [
        {
          "internalType": "string",
          "name": "docHash",
          "type": "string"
        }
      ],
      "name": "isDocumentVerified",
      "outputs": [
        {
          "internalType": "bool",
          "name": "",
          "type": "bool"
        }
      ],
      "stateMutability": "view",
      "type": "function",
      "constant": true
    },
    {
      "inputs": [
        {
          "internalType": "string",
          "name": "docHash",
          "type": "string"
        }
      ],
      "name": "getUploader",
      "outputs": [
        {
          "internalType": "address",
          "name": "",
          "type": "address"
        }
      ],
      "stateMutability": "view",
      "type": "function",
      "constant": true
    }
  ],
  "bytecode": "0x608060405234801561001057600080fd5b5061097c806100206000396000f3fe608060405234801561001057600080fd5b506004361061004c5760003560e01c80636798069114610051578063b7f5576d14610081578063beee5eb71461009d578063ed041da4146100b9575b600080fd5b61006b60048036038101906100669190610568565b6100e9565b6040516100789190610708565b60405180910390f35b61009b60048036038101906100969190610568565b610133565b005b6100b760048036038101906100b29190610568565b610319565b005b6100d360048036038101906100ce9190610568565b610485565b6040516100e09190610723565b60405180910390f35b600080826040516100fa91906106f1565b908152602001604051809103902060000160019054906101000a900473ffffffffffffffffffffffffffffffffffffffff169050919050565b6000815111610177576040517f08c379a000000000000000000000000000000000000000000000000000000000815260040161016e9061079e565b60405180910390fd5b600073ffffffffffffffffffffffffffffffffffffffff1660008260405161019f91906106f1565b908152602001604051809103902060000160019054906101000a900473ffffffffffffffffffffffffffffffffffffffff1673ffffffffffffffffffffffffffffffffffffffff1614610227576040517f08c379a000000000000000000000000000000000000000000000000000000000815260040161021e906107de565b60405180910390fd5b60405180604001604052806000151581526020013373ffffffffffffffffffffffffffffffffffffffff1681525060008260405161026591906106f1565b908152602001604051809103902060008201518160000160006101000a81548160ff02191690831515021790555060208201518160000160016101000a81548173ffffffffffffffffffffffffffffffffffffffff021916908373ffffffffffffffffffffffffffffffffffffffff1602179055509050507f893b21d5c8149b81ad673650d7adbd979a3179146f9682bfe1645408dd154334813360405161030e92919061073e565b60405180910390a150565b600081511161035d576040517f08c379a00000000000000000000000000000000000000000000000000000000081526004016103549061079e565b60405180910390fd5b600073ffffffffffffffffffffffffffffffffffffffff1660008260405161038591906106f1565b908152602001604051809103902060000160019054906101000a900473ffffffffffffffffffffffffffffffffffffffff1673ffffffffffffffffffffffffffffffffffffffff16141561040e576040517f08c379a0000000000000000000000000000000000000000000000000000000008152600401610405906107be565b60405180910390fd5b600160008260405161042091906106f1565b908152602001604051809103902060000160006101000a81548160ff0219169083151502179055507fcf184183f6d011925cc3545fa45d06d1ed971de8bc3d60033907db9acfb41bc481600160405161047a92919061076e565b60405180910390a150565b6000808251116104ca576040517f08c379a00000000000000000000000000000000000000000000000000000000081526004016104c19061079e565b60405180910390fd5b6000826040516104da91906106f1565b908152602001604051809103902060000160009054906101000a900460ff169050919050565b600061051361050e8461082f565b6107fe565b90508281526020810184848401111561052b57600080fd5b6105368482856108c4565b509392505050565b600082601f83011261054f57600080fd5b813561055f848260208601610500565b91505092915050565b60006020828403121561057a57600080fd5b600082013567ffffffffffffffff81111561059457600080fd5b6105a08482850161053e565b91505092915050565b6105b281610886565b82525050565b6105c181610898565b82525050565b60006105d28261085f565b6105dc818561086a565b93506105ec8185602086016108d3565b6105f581610935565b840191505092915050565b600061060b8261085f565b610615818561087b565b93506106258185602086016108d3565b80840191505092915050565b600061063e600c8361086a565b91507f496e76616c6964206861736800000000000000000000000000000000000000006000830152602082019050919050565b600061067e60128361086a565b91507f446f63756d656e74206e6f7420666f756e6400000000000000000000000000006000830152602082019050919050565b60006106be60198361086a565b91507f446f63756d656e7420616c72656164792075706c6f61646564000000000000006000830152602082019050919050565b60006106fd8284610600565b915081905092915050565b600060208201905061071d60008301846105a9565b92915050565b600060208201905061073860008301846105b8565b92915050565b6000604082019050818103600083015261075881856105c7565b905061076760208301846105a9565b9392505050565b6000604082019050818103600083015261078881856105c7565b905061079760208301846105b8565b9392505050565b600060208201905081810360008301526107b781610631565b9050919050565b600060208201905081810360008301526107d781610671565b9050919050565b600060208201905081810360008301526107f7816106b1565b9050919050565b6000604051905081810181811067ffffffffffffffff8211171561082557610824610906565b5b8060405250919050565b600067ffffffffffffffff82111561084a57610849610906565b5b601f19601f8301169050602081019050919050565b600081519050919050565b600082825260208201905092915050565b600081905092915050565b6000610891826108a4565b9050919050565b60008115159050919050565b600073ffffffffffffffffffffffffffffffffffffffff82169050919050565b82818337600083830152505050565b60005b838110156108f15780820151818401526020810190506108d6565b83811115610900576000848401525b50505050565b7f4e487b7100000000000000000000000000000000000000000000000000000000600052604160045260246000fd5b6000601f19601f830116905091905056fea2646970667358221220a9833c95915d747bc3fbc78d456fe5bffe373234df4b9c0c61c97fb2d989cf2064736f6c63430008000033",
  "immutableReferences": {},
  "source": "// SPDX-License-Identifier: MIT\npragma solidity ^0.8.0;\n\ncontract VeriLock {\n    struct Document {\n        bool isVerified;\n        address uploader;\n    }\n\n    mapping(string => Document) private documents;\n\n    event DocumentUploaded(string docHash, address uploader);\n    event DocumentVerified(string docHash, bool verified);\n\n    constructor() {}\n\n    function uploadDocument(string memory docHash) public {\n        require(bytes(docHash).length > 0, \"Invalid hash\");\n        require(documents[docHash].uploader == address(0), \"Document already uploaded\");\n        documents[docHash] = Document(false, msg.sender);\n        emit DocumentUploaded(docHash, msg.sender);\n    }\n\n    function verifyDocument(string memory docHash) public {\n        require(bytes(docHash).length > 0, \"Invalid hash\");\n        require(documents[docHash].uploader != address(0), \"Document not found\");\n        documents[docHash].isVerified = true;\n        emit DocumentVerified(docHash, true);\n    }\n\n    function isDocumentVerified(string memory docHash) public view returns (bool) {\n        require(bytes(docHash).length > 0, \"Invalid hash\");\n        return documents[docHash].isVerified;\n    }\n\n    function getUploader(string memory docHash) public view returns (address) {\n        return documents[docHash].uploader;\n    }\n}\n",
  "sourcePath": "/Users/nansiguru/Projects/VeriLock/contracts/VeriLock.sol",
  "compiler": {
    "name": "solc",
    "version": "0.8.0+commit.c7dfd78e.Emscripten.clang"
  },
  "schemaVersion": "3.4.16",
  "updatedAt": "2025-11-06T07:45:45.963Z",
  "networkType": "ethereum",
  "devdoc": {
    "kind": "dev",
    "methods": {},
    "version": 1
  },
  "userdoc": {
    "kind": "user",
    "methods": {},
    "version": 1
  }
}